:100000000C9446000C9465000C9465000C946500FB
:100010000C9465000C9465000C9465000C946500CC
:100020000C9465000C9465000C9465000C946500BC
:100030000C9465000C948D010C9465000C94650083
:100040000C9465000C9465000C9465000C9465009C
:100050000C9465000C9465000C9465000C9465008C
:100060000C9465000C9465000C9465000C9465007C
:100070000C9465000C9465000C9465000C9465006C
:100080000C9465000C9465000C94650011241FBE4F
:10009000CFEFD0E4DEBFCDBF11E0A0E0B1E0E6EDF0
:1000A000FDE000E00BBF02C007900D92AC31B1073C
:1000B000D9F721E0ACE1B1E001C01D92A337B2074E
:1000C000E1F70E94DC040C94E9060C940000CF9345
:1000D000DF9300D01F92CDB7DEB789837B836A831D
:1000E00089818A3031F48A819B81BC018DE00E9434
:1000F000670080EC90E0FC018081882F90E08072A6
:100100009927892BB1F386EC90E02981FC012083AB
:1001100080E090E00F900F900F90DF91CF910895C5
:10012000CF93DF93CDB7DEB781E890E02BE0FC0101
:10013000208388E890E02DE730E0FC0131832083C4
:100140008FE690E022E0FC01208384E890E022E04A
:1001500030E0FC013183208380910E0190910F01EA
:10016000A0911001B091110180931D0190931E0187
:10017000A0931F01B09320018FE590E02FE530E0C0
:10018000F90120812068FC0120830000DF91CF91DC
:100190000895CF93DF93CDB7DEB781E890E0FC01FF
:1001A00010820000DF91CF9108950F931F93CF939A
:1001B000DF931F92CDB7DEB71982A4C08981282FA3
:1001C00030E0C901880F991F820F931F880F991F74
:1001D000880F991F815D9E4FFC01208131814281F2
:1001E00053818981682F70E0CB01880F991F860F9A
:1001F000971F880F991F880F991F855D9E4FFC01DF
:1002000080819181A281B381281739074A075B0752
:1002100008F449C08981082F10E08981282F30E037
:10022000C901880F991F820F931F880F991F880F8C
:10023000991F8D5C9E4FFC01408151818981282F3F
:1002400030E0C901880F991F820F931F880F991FF3
:10025000880F991F875D9E4FFC0180819181FA0173
:1002600009959C01C801880F991F800F911F880F65
:10027000991F880F991F875D9E4FFC013183208352
:100280008981282F30E0C901880F991F820F931FA1
:10029000880F991F880F991F815D9E4FFC01108266
:1002A0001182128213828981682F70E08981282F40
:1002B00030E0C901880F991F820F931F880F991F83
:1002C000880F991F815D9E4FFC0180819181A281E1
:1002D000B3819C01AD012E5C3F4F4F4F5F4FCB016F
:1002E000880F991F860F971F880F991F880F991FD6
:1002F000815D9E4FFC01208331834283538389813A
:100300008F5F89838981863008F458CF00000F9071
:10031000DF91CF911F910F9108951F920F9200903E
:100320005F000F92112400905B000F922F933F9378
:100330004F935F936F937F938F939F93AF93BF93ED
:10034000EF93FF93CF93DF93CDB7DEB780911D017D
:1003500090911E01A0911F01B09120010197A10968
:10036000B10980931D0190931E01A0931F01B093CA
:10037000200180911D0190911E01A0911F01B0915B
:100380002001892B8A2B8B2B91F40E94D500809120
:100390000E0190910F01A0911001B0911101809375
:1003A0001D0190931E01A0931F01B0932001000036
:1003B000DF91CF91FF91EF91BF91AF919F918F917D
:1003C0007F916F915F914F913F912F910F9000928C
:1003D0005B000F9000925F000F901F901895CF93D5
:1003E000DF9300D000D0CDB7DEB769837A838B83EB
:1003F0009C8389819A81AB81BC8180930E0190930B
:100400000F01A0931001B093110180910E01909102
:100410000F01A0911001B091110180931D019093E3
:100420001E01A0931F01B093200100000F900F90B8
:100430000F900F90DF91CF910895CF93DF93CDB7B9
:10044000DEB78AE790E02AE730E0F9012081206EEC
:10045000FC0120830000DF91CF910895CF93DF93BB
:1004600000D0CDB7DEB79A83898389819A81892BA1
:1004700051F488E790E0FC018081918190937201B2
:100480008093710103C01A821982000089819A81C8
:100490000F900F90DF91CF910895CF93DF9300D00D
:1004A000CDB7DEB79A83898389819A81892B09F038
:1004B00040C080911901813021F487E080931401BC
:1004C00037C080911901823021F487E080931401B4
:1004D0002FC080911901833021F48EE080931401A4
:1004E00027C080911901843021F48CE1809314019C
:1004F0001FC080911901853021F488E38093140195
:1005000017C080911901863021F480E7809314018F
:100510000FC080911901873021F480EE809314017F
:1005200007C080911901883019F480EE809314017E
:10053000000089819A810F900F90DF91CF910895EB
:10054000CF93DF9300D0CDB7DEB79A8389838981BB
:100550009A818130910579F182309105D9F1892B09
:1005600009F048C08091710190917201853F9140DE
:1005700050F080917101909172018835924018F489
:100580001A82198236C08091710190917201843F64
:10059000914028F481E090E09A8389832AC0809179
:1005A0007101909172018935924018F182E090E0DA
:1005B0009A8389831EC08091710190917201843F5A
:1005C000914028F481E090E09A83898313C01A82D5
:1005D000198210C080917101909172018935924009
:1005E00028F082E090E09A83898304C01A821982FD
:1005F00001C0000089819A818130910531F08230FB
:100600009105C9F0892B69F12DC080911201803EBE
:1006100039F480EE8093120187E08093180122C0A4
:1006200080911201880F80931201809118018F5FD1
:100630008093180117C080911201873039F487E048
:100640008093120182E0809318010CC08091120106
:100650008695809312018091180181508093180132
:1006600001C0000089819A810F900F90DF91CF9196
:100670000895CF93DF9300D0CDB7DEB79A838983F7
:1006800089819A81892B09F062C080912301882396
:1006900039F48DEF8093160182E080931A014CC0EB
:1006A00080912301813039F48BEF8093160183E030
:1006B00080931A0141C080912301823039F487EF81
:1006C0008093160184E080931A0136C08091230143
:1006D000833039F48FEE8093160185E080931A0100
:1006E0002BC080912301843039F487EF8093160169
:1006F00084E080931A0120C080912301853039F471
:100700008BEF8093160183E080931A0115C08091CE
:100710002301863039F48DEF8093160182E08093B7
:100720001A010AC080912301873031F48EEF809343
:10073000160181E080931A01809123018F5F8093DD
:10074000230180912301883010F0109223018981C8
:100750009A810F900F90DF91CF910895CF93DF93FF
:1007600000D0CDB7DEB79A83898389819A818130A1
:10077000910509F445C0823091051CF4892B49F09C
:10078000D7C08230910509F481C0039709F4C4C031
:10079000CFC080911A01813009F0C9C09091190130
:1007A00080911801981749F483E090E09A83898337
:1007B0001092210110922201BAC080911901282FB4
:1007C00030E080911801882F90E0019628173907B2
:1007D00029F481E090E09A838983A9C0809119016E
:1007E000282F30E080911801882F90E0019728177A
:1007F000390709F09CC082E090E09A83898397C012
:1008000080911901883029F482E090E09A838983ED
:100810008FC080911901813021F482E0809313010F
:100820002FC080911901823021F484E0809313015C
:1008300027C080911901833021F488E0809313014F
:100840001FC080911901843021F480E1809313014D
:1008500017C080911901853021F480E28093130143
:100860000FC080911901863021F480E48093130138
:1008700007C080911901873019F480E88093130133
:10088000809119018F5F8093190152C080911901E5
:10089000813029F481E090E09A83898349C0809176
:1008A0001901883021F480E4809313012FC08091D6
:1008B0001901873021F480E28093130127C08091D1
:1008C0001901863021F480E1809313011FC08091CB
:1008D0001901853021F488E08093130117C08091BD
:1008E0001901843021F484E0809313010FC08091BA
:1008F0001901833021F482E08093130107C08091B5
:100900001901823019F481E080931301809119015B
:100910008150809319010CC09091190180911801A8
:10092000981731F4809118018093190101C00000DB
:1009300089819A810F900F90DF91CF910895CF9385
:10094000DF9300D0CDB7DEB79A83898389819A81FE
:10095000892BF9F480912601882F90E08E5E9E4FBE
:10096000FC0180818093270180912601882F90E0EF
:100970008B5E9E4FFC01808180932801809126012F
:100980008F5F8093260180912601833011F41092AD
:10099000260188E290E020912701FC0120838BE270
:1009A00090E020912801FC01208389819A810F9099
:1009B0000F90DF91CF910895CF93DF931F92CDB722
:1009C000DEB787E290E02FEFFC01208388E290E021
:1009D000FC0110828AE290E02FEFFC0120838BE281
:1009E00090E0FC0110820E941D0219828981282F4B
:1009F00030E0C901880F991F820F931F880F991F3C
:100A0000880F991F875D9E4FFC011182108289819A
:100A1000282F30E0C901880F991F820F931F880F7C
:100A2000991F880F991F9C01255D3E4F80ED97E02F
:100A3000A0E0B0E0F90180839183A283B383898130
:100A4000282F30E0C901880F991F820F931F880F4C
:100A5000991F880F991F815D9E4FFC0110821182A2
:100A6000128213828981282F30E0C901880F991FD3
:100A7000820F931F880F991F880F991F8D5C9E4FBF
:100A80002EE232E0FC013183208389818F5F8983EC
:100A90008981282F30E0C901880F991F820F931F89
:100AA000880F991F880F991F875D9E4FFC01118247
:100AB00010828981282F30E0C901880F991F820F89
:100AC000931F880F991F880F991F9C01255D3E4F2A
:100AD00080ED97E0A0E0B0E0F90180839183A283EC
:100AE000B3838981282F30E0C901880F991F820FB5
:100AF000931F880F991F880F991F815D9E4FFC01DE
:100B000010821182128213828981282F30E0C9015C
:100B1000880F991F820F931F880F991F880F991FA5
:100B20008D5C9E4F20EA32E0FC0131832083898175
:100B30008F5F89838981282F30E0C901880F991F31
:100B4000820F931F880F991F880F991F875D9E4FF3
:100B5000FC01118210828981282F30E0C901880FA1
:100B6000991F820F931F880F991F880F991F9C014F
:100B7000255D3E4F80E197E2A0E0B0E0F90180837F
:100B80009183A283B3838981282F30E0C901880F24
:100B9000991F820F931F880F991F880F991F815DDE
:100BA0009E4FFC0110821182128213828981282FAC
:100BB00030E0C901880F991F820F931F880F991F7A
:100BC000880F991F8D5C9E4F29E333E0FC01318330
:100BD000208389818F5F89838981282F30E0C90133
:100BE000880F991F820F931F880F991F880F991FD5
:100BF000875D9E4FFC01118210828981282F30E091
:100C0000C901880F991F820F931F880F991F880FA2
:100C1000991F9C01255D3E4F80E197E2A0E0B0E086
:100C2000F90180839183A283B3838981282F30E0E7
:100C3000C901880F991F820F931F880F991F880F72
:100C4000991F815D9E4FFC011082118212821382D6
:100C50008981282F30E0C901880F991F820F931FC7
:100C6000880F991F880F991F8D5C9E4F2EEA33E0E5
:100C7000FC013183208389818F5F89838981282FBB
:100C800030E0C901880F991F820F931F880F991FA9
:100C9000880F991F875D9E4FFC0111821082209161
:100CA000710130917201C901880F991F820F931F42
:100CB000880F991F880F991F9C01255D3E4F80ED7D
:100CC00097E0A0E0B0E0F90180839183A283B38331
:100CD0008981282F30E0C901880F991F820F931F47
:100CE000880F991F880F991F815D9E4FFC0110820C
:100CF0001182128213828981282F30E0C901880F66
:100D0000991F820F931F880F991F880F991F8D5C61
:100D10009E4F2DE432E0FC013183208389818F5F77
:100D200089838981282F30E0C901880F991F820F9C
:100D3000931F880F991F880F991F875D9E4FFC0195
:100D4000118210828981282F30E0C901880F991FF4
:100D5000820F931F880F991F880F991F9C01255D93
:100D60003E4F81E090E0A0E0B0E0F9018083918304
:100D7000A283B3838981282F30E0C901880F991F8E
:100D8000820F931F880F991F880F991F815D9E4FB7
:100D9000FC0110821182128213828981282F30E097
:100DA000C901880F991F820F931F880F991F880F01
:100DB000991F8D5C9E4F2FE934E0FC013183208325
:100DC00061E070E080E090E00E94EF010E949000FE
:060DD000FFCFF894FFCFF5
:100DD60000000002000000006700000000000100A3
:0C0DE6000000071038FEFDEF02050200BF
:00000001FF
