:100000000C9446000C9465000C9465000C946500FB
:100010000C9465000C9465000C9465000C946500CC
:100020000C9465000C9465000C9465000C946500BC
:100030000C9465000C948D010C9465000C94650083
:100040000C9465000C9465000C9465000C9465009C
:100050000C9465000C9465000C9465000C9465008C
:100060000C9465000C9465000C9465000C9465007C
:100070000C9465000C9465000C9465000C9465006C
:100080000C9465000C9465000C94650011241FBE4F
:10009000CFEFD0E4DEBFCDBF11E0A0E0B1E0ECE4F3
:1000A000F8E100E00BBF02C007900D92A032B1074B
:1000B000D9F721E0A0E2B1E001C01D92A039B2075A
:1000C000E1F70E94B1080C94240C0C940000CF932B
:1000D000DF9300D01F92CDB7DEB789837B836A831D
:1000E00089818A3031F48A819B81BC018DE00E9434
:1000F000670080EC90E0FC018081882F90E08072A6
:100100009927892BB1F386EC90E02981FC012083AB
:1001100080E090E00F900F900F90DF91CF910895C5
:10012000CF93DF93CDB7DEB781E890E02BE0FC0101
:10013000208388E890E02DE730E0FC0131832083C4
:100140008FE690E022E0FC01208384E890E022E04A
:1001500030E0FC013183208380910E0190910F01EA
:10016000A0911001B091110180932101909322017F
:10017000A0932301B09324018FE590E02FE530E0B8
:10018000F90120812068FC0120830000DF91CF91DC
:100190000895CF93DF93CDB7DEB781E890E0FC01FF
:1001A00010820000DF91CF9108950F931F93CF939A
:1001B000DF931F92CDB7DEB71982A4C08981282FA3
:1001C00030E0C901880F991F820F931F880F991F74
:1001D000880F991F845C9E4FFC01208131814281F0
:1001E00053818981682F70E0CB01880F991F860F9A
:1001F000971F880F991F880F991F885C9E4FFC01DD
:1002000080819181A281B381281739074A075B0752
:1002100008F449C08981082F10E08981282F30E037
:10022000C901880F991F820F931F880F991F880F8C
:10023000991F805C9E4FFC01408151818981282F4C
:1002400030E0C901880F991F820F931F880F991FF3
:10025000880F991F8A5C9E4FFC0180819181FA0171
:1002600009959C01C801880F991F800F911F880F65
:10027000991F880F991F8A5C9E4FFC013183208350
:100280008981282F30E0C901880F991F820F931FA1
:10029000880F991F880F991F845C9E4FFC01108264
:1002A0001182128213828981682F70E08981282F40
:1002B00030E0C901880F991F820F931F880F991F83
:1002C000880F991F845C9E4FFC0180819181A281DF
:1002D000B3819C01AD012F5F3F4F4F4F5F4FCB016B
:1002E000880F991F860F971F880F991F880F991FD6
:1002F000845C9E4FFC012083318342835383898138
:100300008F5F89838981873008F458CF00000F9070
:10031000DF91CF911F910F9108951F920F9200903E
:100320005F000F92112400905B000F922F933F9378
:100330004F935F936F937F938F939F93AF93BF93ED
:10034000EF93FF93CF93DF93CDB7DEB78091210179
:1003500090912201A0912301B09124010197A1095C
:10036000B1098093210190932201A0932301B093BE
:1003700024018091210190912201A0912301B0914B
:100380002401892B8A2B8B2B91F40E94D50080911C
:100390000E0190910F01A0911001B0911101809375
:1003A000210190932201A0932301B0932401000026
:1003B000DF91CF91FF91EF91BF91AF919F918F917D
:1003C0007F916F915F914F913F912F910F9000928C
:1003D0005B000F9000925F000F901F901895CF93D5
:1003E000DF9300D000D0CDB7DEB769837A838B83EB
:1003F0009C8389819A81AB81BC8180930E0190930B
:100400000F01A0931001B093110180910E01909102
:100410000F01A0911001B0911101809321019093DF
:100420002201A0932301B093240100000F900F90AC
:100430000F900F90DF91CF910895CF93DF93CDB7B9
:10044000DEB78AE790E02AE730E0F9012081206EEC
:10045000FC0120830000DF91CF910895CF93DF93BB
:1004600000D000D000D0CDB7DEB78D836E838D81F4
:1004700082958F70282F8D81882F90E0829592959C
:10048000907F9827807F9827822B8D838D81882F5E
:1004900090E08C7C99279595879595958795282F41
:1004A0008D81882F90E083739927880F991F880F7B
:1004B000991F822B8D838D81882F90E08A7A9927CE
:1004C00095958795282F8D81882F90E085759927A0
:1004D000880F991F822B8D838E818130E1F51A82DE
:1004E000198227C088E290E028E0FC01208388E29E
:1004F00090E028E230E0F9012081422F2D81222F67
:1005000030E0098002C0359527950A94E2F7217002
:10051000242BFC01208388E290E028E230E0F901FE
:1005200020812260FC01208389819A8101969A832F
:10053000898389819A810897ACF288E290E028E269
:1005400030E0F90120812460FC01208388E290E002
:10055000FC0110823EC08E818230D9F51C821B8244
:1005600027C08BE290E028E0FC0120838BE290E042
:100570002BE230E0F9012081422F2D81222F30E043
:100580000B8002C0359527950A94E2F72170242B41
:10059000FC0120838BE290E02BE230E0F901208126
:1005A0002260FC0120838B819C8101969C838B833C
:1005B0008B819C810897ACF28BE290E02BE230E0DB
:1005C000F90120812460FC0120838BE290E0FC0192
:1005D0001082000026960FB6F894DEBF0FBECDBF86
:1005E000DF91CF910895CF93DF9300D0CDB7DEB7E1
:1005F0009A83898389819A81892B51F488E790E0D5
:10060000FC018081918190938B0180938A0103C0CA
:100610001A821982000089819A810F900F90DF91D0
:10062000CF910895CF93DF9300D0CDB7DEB79A83F3
:1006300089830E94B20B24E630E0B9010E943F0B8F
:10064000909328018093270180E290E0FC01808153
:10065000882F90E0809590959595879595958795AD
:1006600095958795959587959595879581708093B4
:10067000290180E290E0FC018081882F90E0809544
:100680009095082E892F000C881F990B000C881F4D
:10069000991F817080932A0189819A818230910506
:1006A00009F49EC0833091052CF4009759F001970E
:1006B000D9F0D3C08330910509F4B2C0049709F48E
:1006C000BDC0CBC080911B01882321F482E090E063
:1006D0009A83898380911B01813009F0BDC081E03C
:1006E00090E09A838983B8C080911901813059F4D0
:1006F00080912701909128018035910524F487E0AD
:100700008093140168C080911901823059F480915E
:100710002701909128018035910524F487E080938A
:10072000140159C080911901833059F48091270137
:10073000909128018035910524F48EE08093140176
:100740004AC080911901843059F480912701909119
:1007500028018035910524F48CE1809314013BC07D
:1007600080911901853059F48091270190912801D9
:100770008035910524F488E3809314012CC0809186
:100780001901863059F48091270190912801803514
:10079000910524F480E7809314011DC08091190114
:1007A000873059F480912701909128018035910577
:1007B00024F480EE809314010EC0809119018830DA
:1007C00051F48091270190912801803591051CF406
:1007D00080EE8093140181E090E09A8389833DC08C
:1007E00080912901882349F080912A01882329F4E6
:1007F00083E090E09A83898312C080912901882345
:1008000049F480912A01882329F084E090E09A83BA
:10081000898305C082E090E09A8389831EC01DC051
:1008200080912901882329F083E090E09A838983CD
:1008300014C082E090E09A8389830FC080912A01DE
:10084000882329F084E090E09A83898306C082E0BF
:1008500090E09A83898301C0000089819A81823067
:10086000910529F18330910524F18330910519F028
:10087000049779F01FC080911401803E21F480EE2E
:100880008093140117C080911401880F8093140184
:1008900011C080911401873021F487E08093140106
:1008A00009C08091140186958093140103C0000053
:1008B00001C0000089819A810F900F90DF91CF9144
:1008C0000895CF93DF9300D0CDB7DEB79A838983A5
:1008D00089819A818130910579F182309105D9F130
:1008E000892B09F048C080918A0190918B01853F46
:1008F000914050F080918A0190918B01883592400F
:1009000018F41A82198236C080918A0190918B0165
:10091000843F914028F481E090E09A8389832AC043
:1009200080918A0190918B018935924018F182E083
:1009300090E09A8389831EC080918A0190918B01F7
:10094000843F914028F481E090E09A83898313C02A
:100950001A82198210C080918A0190918B01893589
:10096000924028F082E090E09A83898304C01A8242
:10097000198201C0000089819A818130910531F08E
:1009800082309105C9F0892B69F12DC08091120147
:10099000803E39F480EE8093120187E08093180145
:1009A00022C080911201880F80931201809118015A
:1009B0008F5F8093180117C080911201873039F43E
:1009C00087E08093120182E0809318010CC080912F
:1009D00012018695809312018091180181508093B5
:1009E000180101C0000089819A810F900F90DF915A
:1009F000CF910895CF93DF9300D0CDB7DEB79A8320
:100A0000898389819A81892B09F062C080912D01A7
:100A1000882339F48DEF8093160182E080931A01C8
:100A20004CC080912D01813039F48BEF80931601F9
:100A300083E080931A0141C080912D01823039F406
:100A400087EF8093160184E080931A0136C080916D
:100A50002D01833039F48FEE8093160185E0809369
:100A60001A012BC080912D01843039F487EF8093D7
:100A7000160184E080931A0120C080912D018530F9
:100A800039F48BEF8093160183E080931A0115C02F
:100A900080912D01863039F48DEF8093160182E02C
:100AA00080931A010AC080912D01873031F48EEFB6
:100AB0008093160181E080931A0180912D018F5F50
:100AC00080932D0180912D01883010F010922D011E
:100AD00089819A810F900F90DF91CF910895CF93E4
:100AE000DF9300D0CDB7DEB79A83898389819A815D
:100AF0008130910599F0823091051CF4892B49F0E1
:100B00002AC28230910509F47DC1039709F4CEC150
:100B100022C281E090E09A8389831DC280911A01EC
:100B2000813009F017C280912501813021F5809133
:100B30001901282F30E080911801882F90E001964C
:100B400028173907C1F483E090E09A838983809164
:100B50005C0190915D01A0915E01B0915F010597EC
:100B6000A109B10980935C0190935D01A0935E019E
:100B7000B0935F0146C180912501813021F58091BC
:100B80001901282F30E080911801882F90E00197FB
:100B900028173907C1F483E090E09A838983809114
:100BA0005C0190915D01A0915E01B0915F0105979C
:100BB000A109B10980935C0190935D01A0935E014E
:100BC000B0935F011EC1809125018130F1F49091B5
:100BD0001901809118019817C1F482E090E09A837E
:100BE000898380915C0190915D01A0915E01B0913B
:100BF0005F010596A11DB11D80935C0190935D017D
:100C0000A0935E01B0935F01FCC08091260181300A
:100C100021F580911901282F30E080911801882F4B
:100C200090E0019628173907C1F482E090E09A839A
:100C3000898380915C0190915D01A0915E01B091EA
:100C40005F010597A109B10980935C0190935D0153
:100C5000A0935E01B0935F01D4C0809126018130E2
:100C600021F580911901282F30E080911801882FFB
:100C700090E0019728173907C1F482E090E09A8349
:100C8000898380915C0190915D01A0915E01B0919A
:100C90005F010597A109B10980935C0190935D0103
:100CA000A0935E01B0935F01ACC0809126018130BA
:100CB000F1F490911901809118019817C1F483E023
:100CC00090E09A83898380915C0190915D01A0916D
:100CD0005E01B0915F010596A11DB11D80935C017D
:100CE00090935D01A0935E01B0935F018AC08091F3
:100CF0002501882341F580912601882321F58091E3
:100D00001901282F30E080911801882F90E001967A
:100D100028173907C1F482E090E09A838983809193
:100D20005C0190915D01A0915E01B0915F0105971A
:100D3000A109B10980935C0190935D01A0935E01CC
:100D4000B0935F015EC080912501882341F58091B9
:100D50002601882321F580911901282F30E0809108
:100D60001801882F90E0019728173907C1F483E014
:100D700090E09A83898380915C0190915D01A091BC
:100D80005E01B0915F010597A109B10980935C01F3
:100D900090935D01A0935E01B0935F0132C080919A
:100DA0002501813029F080912601813009F0D2C0DF
:100DB00080911901282F30E080911801882F90E050
:100DC00001962817390709F4C5C09091190180913F
:100DD0001801981709F4BEC080911901282F30E03E
:100DE00080911801882F90E001972817390709F49E
:100DF000B1C01A82198280912C018F5F80932C01DF
:100E0000A9C0A8C080911A01813029F481E090E046
:100E10009A838983A0C080911901883029F483E0E6
:100E200090E09A83898337C080911901813021F441
:100E300082E0809313012FC080911901823021F448
:100E400084E08093130127C080911901833021F43D
:100E500088E0809313011FC080911901843021F430
:100E600080E18093130117C080911901853021F42E
:100E700080E2809313010FC080911901863021F424
:100E800080E48093130107C080911901873019F421
:100E900080E880931301809119018F5F809319017D
:100EA00081E0809325011092260155C080911A019E
:100EB000813029F481E090E09A8389834CC080914D
:100EC0001901813029F482E090E09A83898337C048
:100ED00080911901883021F480E4809313012FC0A0
:100EE00080911901873021F480E28093130127C09B
:100EF00080911901863021F480E1809313011FC095
:100F000080911901853021F488E08093130117C086
:100F100080911901843021F484E0809313010FC083
:100F200080911901833021F482E08093130107C07E
:100F300080911901823019F481E08093130180912E
:100F400019018150809319011092250181E080934D
:100F5000260101C0000089819A810F900F90DF91D6
:100F6000CF910895CF93DF9300D0CDB7DEB79A83AA
:100F7000898380E290E0FC018081882F90E0809559
:100F80009095959587959595879595958795959540
:100F9000879581708093320180E290E0FC0180812E
:100FA000882F90E080959095959587959595879554
:100FB000959587959595879595958795817080935B
:100FC000290180E290E0FC018081882F90E08095EB
:100FD0009095082E892F000C881F990B000C881FF4
:100FE000991F817080932A0189819A8181309105AE
:100FF00091F0823091051CF4892B41F064C082305D
:101000009105A9F1039709F43FC05DC081E090E02C
:101010009A83898358C085E290E029E1FC0120830E
:1010200080912901882359F080912A01882339F47D
:1010300082E090E09A83898310921B0114C0809112
:101040002901882361F480912A01882341F082E0FC
:1010500090E09A83898381E080931B0104C081E042
:1010600090E09A83898381E080932B012CC085E2F4
:1010700090E020912C01FC01208310922B0182E052
:1010800090E09A8389831FC087E08093120180E1FA
:101090008093130188E3809314018EEF80931501F0
:1010A0008DEF809316018FEE8093170185E080937A
:1010B000190182E080931A011092250110922601F5
:1010C0001A821982000089819A810F900F90DF9116
:1010D000CF910895CF93DF9300D0CDB7DEB79A8339
:1010E000898389819A81892BF9F480913301882F32
:1010F00090E08E5E9E4FFC01808180933401809150
:101100003301882F90E08B5E9E4FFC01808180939D
:101110003501809133018F5F8093330180913301DA
:10112000833011F41092330180912B01882391F4C4
:101130008091340161E00E942E028091350162E0CD
:101140000E942E0261E080E00E942E0262E08FEF9A
:101150000E942E0289819A810F900F90DF91CF918A
:101160000895CF93DF931F92CDB7DEB781E290E071
:10117000FC01108282E290E02FEFFC01208384E2E8
:1011800090E02FEFFC01208382E290E0FC011082CE
:1011900087E290E02FEFFC01208388E290E0FC01E1
:1011A00010828AE290E02FEFFC0120838BE290E036
:1011B000FC0110820E941D0280E090E00E942C0B36
:1011C000DC01CB010E94B60B19828981282F30E007
:1011D000C901880F991F820F931F880F991F880FCD
:1011E000991F8A5C9E4FFC01118210828981282FF1
:1011F00030E0C901880F991F820F931F880F991F34
:10120000880F991F9C01285C3E4F84E690E0A0E087
:10121000B0E0F90180839183A283B3838981282F71
:1012200030E0C901880F991F820F931F880F991F03
:10123000880F991F845C9E4FFC01108211821282DC
:1012400013828981282F30E0C901880F991F820FEE
:10125000931F880F991F880F991F805C9E4F23EF63
:1012600032E0FC013183208389818F5F898389810A
:10127000282F30E0C901880F991F820F931F880F14
:10128000991F880F991F8A5C9E4FFC011182108262
:101290008981282F30E0C901880F991F820F931F81
:1012A000880F991F880F991F9C01285C3E4F84E688
:1012B00090E0A0E0B0E0F90180839183A283B38342
:1012C0008981282F30E0C901880F991F820F931F51
:1012D000880F991F880F991F845C9E4FFC01108214
:1012E0001182128213828981282F30E0C901880F70
:1012F000991F820F931F880F991F880F991F805C79
:101300009E4F21E634E0FC013183208389818F5F89
:1013100089838981282F30E0C901880F991F820FA6
:10132000931F880F991F880F991F8A5C9E4FFC019D
:10133000118210828981282F30E0C901880F991FFE
:10134000820F931F880F991F880F991F9C01285C9B
:101350003E4F84E690E0A0E0B0E0F9018083918305
:10136000A283B3838981282F30E0C901880F991F98
:10137000820F931F880F991F880F991F845C9E4FBF
:10138000FC0110821182128213828981282F30E0A1
:10139000C901880F991F820F931F880F991F880F0B
:1013A000991F805C9E4F2AEF34E0FC01318320833B
:1013B00089818F5F89838981282F30E0C901880F57
:1013C000991F820F931F880F991F880F991F8A5C9E
:1013D0009E4FFC01118210828981282F30E0C901C3
:1013E000880F991F820F931F880F991F880F991FCD
:1013F0009C01285C3E4F84E690E0A0E0B0E0F9015B
:1014000080839183A283B3838981282F30E0C9012F
:10141000880F991F820F931F880F991F880F991F9C
:10142000845C9E4FFC01108211821282138289819A
:10143000282F30E0C901880F991F820F931F880F52
:10144000991F880F991F805C9E4F2FE635E0FC01A5
:101450003183208389818F5F89838981282F30E0C0
:10146000C901880F991F820F931F880F991F880F3A
:10147000991F8A5C9E4F21E030E0FC01318320837C
:1014800020918A0130918B01C901880F991F820F29
:10149000931F880F991F880F991F9C01285C3E4F4E
:1014A00084E690E0A0E0B0E0F90180839183A2831C
:1014B000B3838981282F30E0C901880F991F820FDB
:1014C000931F880F991F880F991F845C9E4FFC0102
:1014D00010821182128213828981282F30E0C90183
:1014E000880F991F820F931F880F991F880F991FCC
:1014F000805C9E4F22E133E0FC01318320838981AF
:101500008F5F89838981282F30E0C901880F991F57
:10151000820F931F880F991F880F991F8A5C9E4F17
:10152000FC01118210828981282F30E0C901880FC7
:10153000991F820F931F880F991F880F991F9C0175
:10154000285C3E4F84E690E0A0E0B0E0F9018083A3
:101550009183A283B3838981282F30E0C901880F4A
:10156000991F820F931F880F991F880F991F845C02
:101570009E4FFC0110821182128213828981282FD2
:1015800030E0C901880F991F820F931F880F991FA0
:10159000880F991F805C9E4F22EB37E0FC0131835E
:1015A000208389818F5F89838981282F30E0C90159
:1015B000880F991F820F931F880F991F880F991FFB
:1015C0008A5C9E4FFC01118210828981282F30E0B5
:1015D000C901880F991F820F931F880F991F880FC9
:1015E000991F9C01285C3E4F82E090E0A0E0B0E0B3
:1015F000F90180839183A283B3838981282F30E00E
:10160000C901880F991F820F931F880F991F880F98
:10161000991F845C9E4FFC011082118212821382FA
:101620008981282F30E0C901880F991F820F931FED
:10163000880F991F880F991F805C9E4F2AE638E01B
:10164000FC013183208361E070E080E090E00E9443
:10165000EF010E949000FFCFFC010FB6F89460915B
:101660008C0170918D0180918E0190918F010FBE40
:10167000309721F06083718382839383089597FB71
:10168000072E16F4009407D077FD09D00E94530B63
:1016900007FC05D03EF4909581959F4F0895709575
:1016A00061957F4F0895AA1BBB1B51E107C0AA1F7C
:1016B000BB1FA617B70710F0A61BB70B881F991FF3
:1016C0005A95A9F780959095BC01CD0108958F9208
:1016D0009F92AF92BF92CF92DF92EF92FF92CF9301
:1016E000DF93EC01688179818A819B8161157105A5
:1016F0008105910521F464E279ED8BE597E02DE118
:1017000033EF41E050E00E94C10B49015A019B01B7
:10171000AC01A7EAB1E40E94E00B6B017C01ACEEE6
:10172000B4EFA50194010E94EE0BDC01CB018C0DFE
:101730009D1DAE1DBF1DB7FF03C00197A109B04895
:1017400088839983AA83BB839F77DF91CF91FF9092
:10175000EF90DF90CF90BF90AF909F908F900895C3
:101760000C94670B8CE191E00C94670BA0E0B0E067
:1017700080931C0190931D01A0931E01B0931F0143
:101780000895052E97FB1EF400940E94D80B57FD78
:1017900007D00E94F30B07FC03D04EF40C94D80B37
:1017A00050954095309521953F4F4F4F5F4F08958D
:1017B00090958095709561957F4F8F4F9F4F0895BD
:1017C0000E94150CA59F900DB49F900DA49F800DB5
:1017D000911D11240895B7FF0C94E00B0E94E00BBB
:1017E000821B930B0895A1E21A2EAA1BBB1BFD01BD
:1017F0000DC0AA1FBB1FEE1FFF1FA217B307E407F0
:10180000F50720F0A21BB30BE40BF50B661F771F47
:10181000881F991F1A9469F7609570958095909527
:101820009B01AC01BD01CF010895A29FB001B39F00
:10183000C001A39F700D811D1124911DB29F700DD9
:0C184000811D1124911D0895F894FFCF24
:10184C000000000200000000670000000000010022
:10185C000000071038FEFDEF020502010100000038
:00000001FF
